:040000009AEF01F082
:08000800046ED8CF05F0E0CF33
:1000100006F00001E9CF0CF0EACF07F0E1CF08F0DD
:10002000E2CF09F0D9CF0AF0DACF0BF0F3CF12F01C
:10003000F4CF13F0FACF14F0F5CF15F0F6CF16F099
:10004000F7CF17F000C00EF001C00FF002C010F0A3
:1000500003C011F0F2A830EF00F0F2B209EF01F0A6
:100060000EC000F00FC001F010C002F011C003F08C
:100070000CC0E9FF07C0EAFF078E08C0E1FF09C016
:10008000E2FF0AC0D9FF0BC0DAFF12C0F3FF13C0B2
:10009000F4FF14C0FAFF15C0F5FF16C0F6FF17C035
:1000A000F7FF045006C0E0FF05C0D8FF10008350E2
:1000B000006E00380F0B016E12000F0E9514F00940
:1000C000956E8C8400008C800000F1DF01C033F05D
:1000D0008C9000008C80030E006E002EFED700D0A6
:1000E000E6DF01C032F08C900F0E9514956E333818
:1000F000006EF00E001600503210016E1200333800
:10010000F00B006E0F0E8C1400108C6E00008C80B3
:10011000070E006E002EFED700D08C901200959036
:10012000959295948C92C9DF01C032F001BEFBD745
:100130008C9230B08C8200008C9400008C9031380E
:10014000326E0F0E321632C033F0D9DF31500F0B42
:10015000326E336ED4DF12002D2C01D003D0400E4E
:100160002E6E01D02E6A010E2C5C2E262E50800998
:100170002F6E306A316ED3DF1200EA6A2C0EE96E00
:10018000EF500EE00F0E016E006A002EFED7012E1A
:10019000FBD78F0E006E002EFED70000EF2EF2D799
:1001A00012002B50070A07E00B0A0AE0060A10E0CB
:1001B000020A14E018D0010E2C6E2D6ECDDF18D07F
:1001C000306A010E316EABDF020E2C6ED6DF10D01E
:1001D000010E2C6E020E2D6EBFDF0AD0306A100E9B
:1001E000316E9DDF05D0010E306E2BC031F097DFF0
:1001F00012000900F5520CE0F6CF29F0F7CF2AF0F3
:10020000F5CF2BF0CEDF29C0F6FF2AC0F7FFF1D7DC
:1002100012003E0EF66E020EF76EEBDF286A2850D3
:1002200009080AE38A8EC80E2C6EA7DF8A9E640E28
:100230002C6EA3DF282AF3D7F29230EF00F00C46A1
:10024000756E63696F6E0A496E746572727570635C
:10025000696F6E000C467563696F6E0A5072696E45
:10026000636970616C000C46756E63696F6E0A435A
:1002700069636C6164610000280E1D6E0C0E1E6EB9
:10028000010E1F6E060E206E8C908C928C940F0EB9
:100290009514956E959095929594196AF2BE198E63
:1002A000F29E0F0E2C6E69DF19BEF28E010E1C6ECF
:1002B0001C50030814E3196AF2BE198EF29E030E55
:1002C000336E1DDF19BEF28E196AF2BE198EF29ED0
:1002D000050E2C6E52DF19BEF28E1C2AE9D7196A60
:1002E000F2BE198EF29E020E336E09DF19BEF28E37
:1002F000196AF2BE198EF29E050E2C6E3EDF19BEF3
:10030000F28E1C6A1C50030813E3036A1C501D0F75
:10031000E96E000E0320EA6EEFCF31F0196AF2BEEB
:10032000198EF29E306AFBDE19BEF28E1C2AEAD7C5
:10033000AEEF01F0F86AD09E078E700ED36ED26ACF
:100340009B6A1B6A1A6A0F015B6B5C6B5D6B5E6B71
:100350005F6B9A6A996A986A00018ED7540EF66E9E
:10036000020EF76E196AF2BE198EF29E42DF19BEB6
:10037000F28E010E936E856EF19E8A8A040E1C6EBB
:10038000196AF2BE198EF29EFA0E2C6EF6DE19BEB6
:10039000F28E1C2EF5D78A9A040E1C6E196AF2BED4
:1003A000198EF29EFA0E2C6EE8DE19BEF28E1C2E0D
:1003B000F5D7F288F19CC00EF212660EF66E020EB0
:1003C000F76E196AF2BE198EF29E13DF19BEF28E15
:1003D0008A86020E1C6E196AF2BE198EF29E960E65
:1003E0002C6ECBDE19BEF28E1C2EF5D78A96196ABA
:1003F000F2BE198EF29EC80E2C6EBFDE19BEF28EB2
:04040000DCD7030042
:020000040030CA
:0E00000023C85E3C00D3A1000FC00FE00F40EC
:00000001FF
;PIC18F45K50
;CRC=8787  CREATED="05-nov.-20 20:21"
