:042000006BEF10F082
:08200800046ED8CF05F0E0CF13
:1020100006F00001E9CF0CF0EACF07F0E1CF08F0BD
:10202000E2CF09F0D9CF0AF0DACF0BF0F3CF12F0FC
:10203000F4CF13F0FACF14F0F5CF15F0F6CF16F079
:10204000F7CF17F000C00EF001C00FF002C010F083
:1020500003C011F0F2AA30EF10F0F2B457EF10F015
:102060000EC000F00FC001F010C002F011C003F06C
:102070000CC0E9FF07C0EAFF078E08C0E1FF09C0F6
:10208000E2FF0AC0D9FF0BC0DAFF12C0F3FF13C092
:10209000F4FF14C0FAFF15C0F5FF16C0F6FF17C015
:1020A000F7FF045006C0E0FF05C0D8FF1000939072
:1020B0008A70D76A1B0ED66EF29430EF10F0000EC5
:1020C000936E800ED56ED76A1B0ED66EF28AC00E46
:1020D000F2127DEF10F0F86AD09E078E700ED36E6C
:1020E000D26A9B6A0F015B6B5C6B5D6B5E6B5F6BB7
:0E20F0009A6A996A986A0001E2D7FFD7030046
:020000040030CA
:0E00000023C85E3C00D3A1000FC00FE00F40EC
:00000001FF
;PIC18F45K50
;CRC=C436  CREATED="02-nov.-20 15:14"
