:042000005CEF13F08E
:08200800414443203D20253432
:102010002E336600566F6C74616A65203D2025344E
:102020002E336600EA6A1C0EE96EEF500EE0010ED8
:10203000016E006A002EFED7012EFBD74A0E006EFD
:10204000002EFED700D0EF2EF2D712002338F00B6F
:10205000006E0F0E8C1400108C6E00008C8000D06F
:102060008C9012008350006E00380F0B016E12002E
:102070000F0E9514F009956E8C8400008C80000082
:10208000F1DF01C023F08C9000008C800000EADFBB
:1020900001C022F08C900F0E9514956E2338006EBF
:1020A000F00E001600502210016E5CEF10F09590BB
:1020B000959295948C92DCD701C022F001BEFBD79B
:1020C0008C9220B08C8200008C9400008C9021387F
:1020D000226E0F0E221622C023F0B8DF21500F0B04
:1020E000226E236EB3DF1200280E0F6E0C0E106EE0
:1020F000010E116E060E126E8C908C928C940F0E47
:102100009514956E9590959295940F0E1C6E8ADF9E
:10211000010E0E6E0E50030808E3030E236E96DFC9
:10212000050E1C6E7FDF0E2AF5D7020E236E8EDFA2
:10213000050E1C6E77DF0E6A0E5003080DE3036A6E
:102140000E500F0FE96E000E0320EA6EEFCF21F064
:10215000206AADDF0E2AF0D77BEF13F01D2C01D0E3
:1021600003D0400E1E6E01D01E6A010E1C5C1E269E
:102170001E5080091F6E206A216E99DF12001B50CD
:10218000070A07E00B0A0AE0060A10E0020A14E058
:1021900018D0010E1C6E1D6EE1DF18D0206A010EF2
:1021A000216E85DF020E1C6E3DDF10D0010E1C6E0D
:1021B000020E1D6ED3DF0AD0206A100E216E77DF6B
:1021C00005D0010E206E1BC021F071DF12008E0EB3
:1021D000006E0FC001F00EC002F0036A015209E167
:1021E00002C001F0026A080E005E015202E1006ABC
:1021F00008D0D89001BE04D0023601360006F9D7C7
:10220000019E91EF13F01B50D8B471D0006E1F5097
:10221000D8B46DD0002604E3810E002668E204D015
:102220007F0E005E64E363E01CC023F02050231A9D
:102230001C8E208E1E502202F4CF25F01D5021024C
:10224000F4CF03F0F3CF24F02202F3502526F4500C
:102250002422000E03221E502102F3502526F450A2
:102260002422000E026A032202221C502202F35092
:102270002426F4500322000E02221C502102F350A7
:102280000326F4500222000E016A01221E50200291
:10229000F3502426F4500322000E022201221D5086
:1022A0002002F3500326F4500222000E01221C509B
:1022B0002002F3500226F4500122002A01BE05D06C
:1022C00024360336023601360006000E24AE0AD04C
:1022D000032A02220122015005E1025003E10350CA
:1022E00001E1002A23BE018E23AE019E04D0006AC4
:1022F000016A026A036A12001250D8B4A5D01E6E99
:102300001650D8B4A1D01E5E05E37F0E1E26D8B0AD
:102310009BD006D0810E1E5ED8A096D0D8B494D0A3
:102320001EC000F0016A026A036A1D6A13C01CF035
:102330001C8E14C01BF015C01AF0190E1E6E195019
:102340001A5E0DE2010E1B5E0AE21C5E08E21D5ED3
:1023500006E21D2A1C2A1B2A19501A2628D01850BA
:102360001B5E12E2010E1C5E0FE21D5E0DE21D2AD5
:102370001C2A18501B2619501A2619E31B2A17E18C
:102380001C2A15E11D2A13D0175080091C5E0EE28D
:10239000010E1D5E0BE21D2A175080091C261850E5
:1023A0001B26E9E31C2AE7E11D2AE5D703801E2E40
:1023B00001D00BD0D8901A361B361C361D36D8905B
:1023C0000336023601361F36BAD71FA006D0D89082
:1023D0000132023203321F3202D0000635E01FBE46
:1023E0001ED0D8901A361B361C361D3619501A5E70
:1023F00007E2010E1B5E04E21C5E02E21D5E1AE3B0
:1024000018501B5E05E2010E1C5E02E21D5E12E327
:10241000175080091C5E03E2010E1D5E0BE3032AC8
:1024200009E1022A07E1012A05E1002A0DE0013253
:102430000232033213C01EF017501E1A1EAE02D015
:10244000018E06D0019E04D0006A016A026A036A06
:10245000C0EF13F00900F6CF0FF0F7CF10F0F5CF73
:102460001BF08DDE0FC0F6FF10C0F7FF0E2EF2D767
:1024700012001B50B6081B6E036A1CC01FF01C8E96
:10248000D8901C321D321E32033202320132003229
:102490001B2EF6D71FAE0BD0001E011E021E031E00
:1024A000002AD8B4012AD8B4022AD8B4032AC7EF24
:1024B00012F0D8B203D0EA6A230EE96E006A016A0C
:1024C000026A036A236A246A256A266A2250211056
:1024D00020101F102CE0200E276ED8901B361C36C3
:1024E0001D361E3623362436253626362250265CE7
:1024F00008E12150255C05E12050245C02E11F50D9
:10250000235C0FE31F50235E2050D8A0203C245EA4
:102510002150D8A0213C255E2250D8A0223C265E26
:10252000D8800036013602360336272ED6D723C090
:10253000EFFF24C0ECFF25C0ECFF26C0ECFF12002B
:10254000E950136E1250156E19E011C01EF010C044
:102550001DF00FC01CF00EC01BF0226A216A200E75
:10256000206E820E1F6E4FDE03C011F002C010F00D
:1025700001C00FF000C00EF0152EE7D711C01EF0FD
:1025800010C01DF00FC01CF00EC01BF072D703C0AE
:1025900011F002C010F001C00FF000C00EF011AE3B
:1025A0000DD01306138A0E1E0F1E101E111E0E2AAA
:1025B000D8B40F2AD8B4102AD8B4112A3B0E1A6EF8
:1025C0009A0E196ECA0E186E176A0A0E156E125000
:1025D000D8B4132AD882EA6A0E0EE96E11C01EF032
:1025E00010C01DF00FC01CF00EC01BF01AC022F06E
:1025F00019C021F018C020F017C01FF05ADF015099
:1026000000520FE11228155C0CE013500CE00F0B88
:10261000155C01E037E213BE35D013BC04D0200EA8
:102620002DD0200E131613AA0CD0139A1250D8A432
:1026300013060050136E2D0E1B6EA1DD1350006E9D
:10264000136A1250155C0AE10050136E2E0E1B6EB9
:1026500096DD1350006E200E1316000E300E13AAD6
:102660000DD0139A1250D8A413060050136E2D0EDD
:102670001B6E85DD1350006E136A300E002600C0FD
:102680001BF07DDDD8921AC01EF019C01DF018C0D5
:102690001CF017C01BF0226A216A206A0A0E1F6E06
:1026A00008DF03C01AF002C019F001C018F000C022
:1026B00017F0152E8FD71200F86AD09E500ED36EE9
:1026C000D26A9B6A0F015B6B5C6B5D6B5E6B5F6BD1
:1026D0009A6A996A986A046A056AC050C00B070929
:1026E000C06EC08EC280000E016EC250830B0110FE
:1026F000C26E0001F9D4FF0E926E0C0E1B6E3FDD10
:10270000010E1C6E1D6E2ADD640E1C6E8BDCC282F7
:10271000C2B2FED7C4CF03F0C3CF0EF0C4CF0FF0C8
:1027200056D503C009F002C008F001C007F000C090
:1027300006F009C01EF008C01DF007C01CF006C05E
:102740001BF0226A216A200E206E810E1F6E5BDD57
:1027500003C011F002C010F001C00FF000C00EF075
:1027600003C015F002C014F001C013F000C012F055
:10277000196AC00E186E7F0E176E880E166EBCD5C5
:1027800003C00DF002C00CF001C00BF000C00AF055
:10279000010E1C6E1D6EE2DC080EF66E200EF76E4A
:1027A000060E0E6E57DE030EE96E09C011F008C06A
:1027B00010F007C00FF006C00EF0126EC1DE010E61
:1027C0001C6E020E1D6ECADC140EF66E200EF76E25
:1027D0000A0E0E6E3FDE030EE96E0DC011F00CC046
:1027E00010F00BC00FF00AC00EF0126EA9DE020E40
:1027F0000E6EFA0E1C6E16DC0E2EFBD785D703006C
:020000040030CA
:0E00000021C85E3C00D3A1000FC00FE00F40EE
:00000001FF
;PIC18F45K50
;CRC=384D  CREATED="11-dic.-20 12:41"
