:042000001AEF11F0D2
:082008004D45444952004341DB
:102010004C49425241520000494E494349414C49C2
:102020005A415200EA6A0D0EE96EEF500EE00F0EB3
:10203000016E006A002EFED7012EFBD78F0E006EB8
:10204000002EFED70000EF2EF2D712001238F00B50
:10205000006E0F0E8C1400108C6E00008C80070E2A
:10206000006E002EFED700D08C9012008350006EC0
:1020700000380F0B016E12000F0E9514F009956ECB
:102080008C8400008C800000F1DF01C012F08C9085
:1020900000008C80030E006E002EFED700D0E6DF1D
:1020A00001C011F08C900F0E9514956E1238006ED1
:1020B000F00E001600501110016E64EF10F09590B4
:1020C000959295948C92D8D701C011F001BEFBD7A0
:1020D0008C920FB08C8200008C9400008C90103891
:1020E000116E0F0E111611C012F0B0DF10500F0B51
:1020F000116E126EABDF1200280E096E0C0E0A6E06
:10210000010E0B6E060E0C6E8C908C928C940F0E42
:102110009514956E9590959295940F0E0D6E82DFA5
:10212000010E086E0850030808E3030E126E8EDFDE
:10213000050E0D6E77DF082AF5D7020E126E86DFC8
:10214000050E0D6E6FDF086A085003080DE3036A81
:102150000850090FE96E000E0320EA6EEFCF10F071
:102160000F6AADDF082AF0D72FEF11F00C2C01D049
:1021700003D0400E0D6E01D00D6A010E0B5C0D26D2
:102180000D5080090E6E0F6A106E99DF12000A5012
:10219000070A07E00B0A0AE0060A10E0020A14E048
:1021A00018D0010E0B6E0C6EE1DF18D00F6A010E15
:1021B000106E85DF020E0D6E35DF10D0010E0B6E36
:1021C000020E0C6ED3DF0AD00F6A100E106E77DF8E
:1021D00005D0010E0F6E0AC010F071DF1200090069
:1021E000F5520CE0F6CF08F0F7CF09F0F5CF0AF082
:1021F000CEDF08C0F6FF09C0F7FFF1D712009490B8
:102200008B7018EF11F094928B7218EF11F0949478
:102210008B7418EF11F00850000A05E0010A05E080
:10222000030A05E005D0EBD703D0EDD701D0EFD7F7
:1022300074EF11F0F86AD09E700ED36ED26A9B6A6A
:10224000056A046A0F015B6B5C6B5D6B5E6B5F6BB9
:102250009A6A996A986A030E076E00014DD79280B8
:1022600080A00BD0062A020E086E960E0D6EDADEE6
:10227000082EFBD70C0E0A6E8ADF010E075C065C87
:1022800002E001E3066A065005E0010A11E0030AD4
:1022900019E021D0010E0B6E0C6E68DF080EF66E91
:1022A000200EF76E9CDF010E0B6E0C6E5FDF13D0FD
:1022B0000E0EF66E200EF76E92DF010E0B6E0C6E98
:1022C00055DF09D0180EF66E200EF76E88DF010E6E
:1022D0000B6E0C6E4BDF928280A206D0C80E0D6E84
:0C22E000A1DE06C008F097D7BAD70300B3
:020000040030CA
:0E00000023C85E3C00D3A1000FC00FE00F40EC
:00000001FF
;PIC18F45K50
;CRC=FD5D  CREATED="26-oct.-20 19:46"
