:042000002CEF10F0C1
:08200800F76A180FF66E200EB6
:10201000F7220900F55012003F065B4F666D7D0701
:102020007F6F000E936E926E936A8A6A3FEF10F094
:10203000EA6A070EE96EEF500EE00F0E016E006ABD
:10204000002EFED7012EFBD78F0E006E002EFED77E
:102050000000EF2EF2D71200F86AD09E700ED36EF9
:10206000D26A9B6A0F015B6B5C6B5D6B5E6B5F6B37
:102070009A6A996A986A056A066A0001D2D7066A5E
:102080000650090821E3056A055009081BE3020E02
:10209000896E036A0550B8DF936A8A6E320E076E46
:1020A000C7DF065203E1030E896E02D0010E896E6E
:1020B000036A0650A9DF936A8A6E320E076EB8DF94
:0C20C000052AE2D7062ADCD7DAD7030095
:020000040030CA
:0E00000023C85E3C00D3A1000FC00FE00F40EC
:00000001FF
;PIC18F45K50
;CRC=BA06  CREATED="26-oct.-20 22:25"
