:042000007DEF11F06F
:08200800F76A180FF66E200EB6
:10201000F7220900F55012003132333435363738A3
:10202000392A30230C4C6973746F2E2E202E200A0F
:1020300000000C4C6973746F2E2E202E200A0000B5
:10204000EA6A170EE96EEF5007E0280E006E002EC8
:10205000FED70000EF2EF9D78EEF10F01C38F00BF2
:10206000006E0F0E8C1400108C6E00008C808C9013
:1020700012008350006E00380F0B016E12000F0E1D
:102080009514F009956E8C8400008C800000F1DFBF
:1020900001C01CF08C9000008C80EBDF01C01BF0B5
:1020A0008C900F0E9514956E1C38006EF00E001675
:1020B00000501B10016E62EF10F095909592959470
:1020C0008C92DDD701C01BF001BEFBD78C9219B0FA
:1020D0008C8200008C9400008C901A381B6E0F0EBE
:1020E0001B161BC01CF0BADF1A500F0B1B6E1C6EA8
:1020F000B5DF1200280E136E0C0E146E010E156E55
:10210000060E166E8C908C928C940F0E9514956E14
:102110009590959295940F0E176E92D7010E126EB0
:102120001250030809E3030E1C6E98DFD00E006EF8
:10213000002EFED7122AF4D7020E1C6E8FDFD00EAF
:10214000006E002EFED7126A125003080DE3036AD8
:102150001250130FE96E000E0320EA6EEFCF1AF053
:10216000196AABDF122AF0D797EF11F00F0E936EBA
:1021700098EF11F0162C01D003D0400E176E01D04D
:10218000176A010E155C172617508009186E196A18
:102190001A6E93DF12001450070A07E00B0A0AE0D8
:1021A000060A11E0020A15E019D0010E156E166E2E
:1021B000E1DF19D0196A010E1A6E7FDF530E006E2F
:1021C000002EFED710D0010E156E020E166ED2DF55
:1021D0000AD0196A100E1A6E70DF05D0010E196E42
:1021E00014C01AF06ADF12000900F5520CE0F6CFB5
:1021F00012F0F7CF13F0F5CF14F0CDDF12C0F6FFD9
:1022000013C0F7FFF1D712009380000E81B0010ECA
:10221000146E9382000E81B2010E14169384000E88
:1022200081B4010E14169386000E81B6010E1414AB
:1022300004E0000E016E03D002D0010E016E120008
:10224000126A042A0450030854E2075005E0010A08
:102250000AE0030A0FE014D093988A98939A8A8A26
:10226000939C8A8C0DD093988A88939A8A9A939C8F
:102270008A8C06D093988A88939A8A8A939C8A9C9F
:1022800005A008D0C1DF015204E1059006C012F09C
:10229000066A2ED0B9DF015226E0938081B002D0C9
:1022A000136A11D0938281B203D0010E136E0BD04A
:1022B000938481B403D0020E136E05D0938681B649
:1022C00002D0030E136E1350030DF350156A146EF3
:1022D000036A07501424016E15500322015094DE46
:1022E000066E058005D0072A0750020801E2076A3A
:1022F000046A12C001F09EEF11F0F86AD09E200E21
:10230000D36ED26A9B6A0F6A0E6A0F015B6B5C6BBD
:102310005D6B5E6B5F6B9A6A996A986A0590046A56
:102320000590066A076A086A096A0001E3D61ED7A3
:10233000240EF66E200EF76E57DF82D701C010F024
:10234000300E105C116E10520CE010502A0806E19D
:10235000320EF66E200EF76E47DF03D010C014F079
:062360001ADFEBD70300B9
:020000040030CA
:0E00000021C85E3C00D3A1000FC00FE00F40EE
:00000001FF
;PIC18F45K50
;CRC=35F7  CREATED="29-oct.-20 11:02"
