:04200000F9EF11F0F3
:08200800F76A180FF66E200EB6
:10201000F7220900F55012003132333435363738A3
:10202000392A30230A7075736C736172207465638A
:102030006C6120310A000C70756C736172207465DC
:10204000636C612025750A000C50756572746120FF
:1020500041626965727461000C507565727461202B
:102060004365727261646100EA6A1D0EE96EEF50A9
:1020700007E0280E006E002EFED70000EF2EF9D7E5
:1020800012002438F00B006E0F0E8C1400108C6EB2
:1020900000008C808C9012008350006E00380F0B73
:1020A000016E12000F0E9514F009956E8C840000DD
:1020B0008C800000F1DF01C024F08C9000008C8047
:1020C000EBDF01C023F08C900F0E9514956E243831
:1020D000006EF00E001600502310016E88EF10F015
:0820E0000F0E936E14EF12F0D5
:102100003700320033009590959295948C92CAD7FF
:1021100001C023F023BEFBD78C9221B08C8200003B
:102120008C9400008C902238236E0F0E231623C04F
:1021300024F0A7DF22500F0B236E23C024F0A1DF71
:102140001200280E196E0C0E1A6E010E1B6E060E72
:102150001C6E8C908C928C940F0E9514956E9590AD
:10216000959295940F0E1D6E7FDF010E186E18501C
:10217000030809E3030E246E84DFD00E006E002EE8
:10218000FED7182AF4D7020E246E7BDFD00E006E25
:10219000002EFED7186A185003080DE3036A185082
:1021A000190FE96E000E0320EA6EEFCF22F0216ACC
:1021B000AADF182AF0D713EF12F01E2C01D003D09B
:1021C000400E1F6E01D01F6A010E1D5C1F261F509E
:1021D0008009206E216A20C022F095DF12001C5079
:1021E000070A07E00B0A0AE0060A11E0020A15E0F6
:1021F00019D0010E1D6E1E6EE0DF19D0216A010E8E
:10220000226E81DF530E006E002EFED710D0010E1D
:102210001D6E020E1E6ED1DF0AD0216A100E226ED4
:1022200072DF05D0010E216E1CC022F06CDF12009F
:102230000900F5520CE0F6CF18F0F7CF19F0F5CF02
:102240001CF0CDDF18C0F6FF19C0F7FFF1D7120060
:102250009380000E81B0010E1A6E9382000E81B23F
:10226000010E1A169384000E81B4010E1A1693867D
:10227000000E81B6010E1A1404E0000E016E03D0A8
:1022800002D0010E016E1200186A042A04500308DD
:1022900054E2075005E0010A0AE0030A0FE014D0F7
:1022A00093988A98939A8A8A939C8A8C0DD0939853
:1022B0008A88939A8A9A939C8A8C06D093988A8863
:1022C000939A8A8A939C8A9C05A008D0C1DF015208
:1022D00004E1059006C018F0066A2ED0B9DF01525D
:1022E00026E0938081B002D0196A11D0938281B226
:1022F00003D0010E196E0BD0938481B403D0020E6B
:10230000196E05D0938681B602D0030E196E19504E
:10231000030DF3501B6A1A6E036A07501A24016EEC
:102320001B500322015070DE066E058005D0072A7F
:102330000750020801E2076A046A18C001F01EEFA4
:1023400012F00900F6CF1AF0F7CF1BF0F5CF1CF012
:1023500046DF1AC0F6FF1BC0F7FF192EF2D736EF83
:1023600012F01C50016A1B5C03E21BC000F00CD091
:10237000006A080E1D6E1B3600361C50005CD8B07B
:10238000006E01361D2EF7D71200015019C01BF048
:10239000640E1C6EE6DF00C019F00150300E07E13C
:1023A0001AA20CD01AB60AD01AB8200E03D01A9668
:1023B0001A981A80012601C01CF011DF19C01BF009
:1023C0000A0E1C6ECEDF00C019F00150300E06E17F
:1023D0001AB608D01AA006D01AB8200E012601C0DD
:1023E0001CF0FDDE300E192619C01CF0F8DE3BEFA4
:1023F00012F0F86AD09E200ED36ED26A9B6A0F6AE2
:102400000E6A0F015B6B5C6B5D6B5E6B5F6B9A6A58
:10241000996A986A0590046A0590066A076A086ACC
:10242000096A00018ED65CD6116A240EF66E200E63
:10243000F76EFEDE1150020822E326D701C010F02D
:1024400010521CE0036A1150120FE96E000E0320B7
:10245000EA6E10C0EFFF112A010E1124186E360E1D
:10246000F66E200EF76E0E0E196E6BD718C019F0AF
:102470001B0E1A6E8AD70A0E1C6EB1DEDBD7116AEC
:102480001150020815E3036A1150150FE96E000E92
:102490000320EA6EF2CF1AF0F29E11C0A9FFA69CAB
:1024A000A69EA680A8501ABEF28EEF6E112AE8D71B
:1024B0001550125C17E11650135C14E11750145CB0
:1024C00011E1480EF66E200EF76EB2DE9290898012
:1024D000020E186EFA0E1D6EC7DD182EFBD79290F5
:1024E000899005D0580EF66E200EF76EA1DE040E10
:1024F000186EFA0E1D6EB8DD182EFBD795D70300A7
:020000040030CA
:0E00000021C85E3C00D3A1000FC00FE00F40EE
:00000001FF
;PIC18F45K50
;CRC=2470  CREATED="28-oct.-20 09:58"
