:04200000E8EF11F004
:08200800F76A180FF66E200EB6
:10201000F7220900F55012003132333435363738A3
:10202000392A30230A50756C736172207465636CB1
:102030006120310A00000C50756C73617220746568
:10204000636C612025750A000C50756572746120FF
:1020500041626965727461000C507565727461202B
:102060004365727261646100EA6A1A0EE96EEF50AC
:1020700007E0280E006E002EFED70000EF2EF9D7E5
:1020800012002138F00B006E0F0E8C1400108C6EB5
:1020900000008C808C9012008350006E00380F0B73
:1020A000016E12000F0E9514F009956E8C840000DD
:1020B0008C800000F1DF01C021F08C9000008C804A
:1020C000EBDF01C020F08C900F0E9514956E213837
:1020D000006EF00E001600502010016E75EF10F02B
:1020E0009590959295948C92DDD701C020F001BE19
:1020F000FBD78C921EB08C8200008C9400008C90D8
:102100001F38206E0F0E201620C021F0BADF1F509E
:102110000F0B206E216EB5DF1200280E166E0C0E0E
:10212000176E010E186E060E196E8C908C928C94A0
:102130000F0E9514956E9590959295940F0E1A6EBC
:1021400093DF010E156E1550030809E3030E216E8F
:1021500098DFD00E006E002EFED7152AF4D7020E9F
:10216000216E8FDFD00E006E002EFED7156A15503F
:1021700003080DE3036A1550160FE96E000E0320E5
:10218000EA6EEFCF1FF01E6AABDF152AF0D702EF21
:1021900012F00F0E936E03EF12F01B2C01D003D040
:1021A000400E1C6E01D01C6A010E1A5C1C261C50CD
:1021B00080091D6E1E6A1F6E93DF12001950070AF8
:1021C00007E00B0A0AE0060A11E0020A15E019D03E
:1021D000010E1A6E1B6EE1DF19D01E6A010E1F6E12
:1021E0007FDF530E006E002EFED710D0010E1A6E48
:1021F000020E1B6ED2DF0AD01E6A100E1F6E70DF39
:1022000005D0010E1E6E19C01FF06ADF1200090012
:10221000F5520CE0F6CF15F0F7CF16F0F5CF19F028
:10222000CDDF15C0F6FF16C0F7FFF1D7120093807F
:10223000000E81B0010E176E9382000E81B2010E66
:1022400017169384000E81B4010E17169386000EA4
:1022500081B6010E171404E0000E016E03D002D007
:10226000010E016E1200156A042A0450030854E29C
:10227000075005E0010A0AE0030A0FE014D0939822
:102280008A98939A8A8A939C8A8C0DD093988A888C
:10229000939A8A9A939C8A8C06D093988A88939A68
:1022A0008A8A939C8A9C05A008D0C1DF015204E170
:1022B000059006C015F0066A2ED0B9DF015226E05F
:1022C000938081B002D0166A11D0938281B203D07C
:1022D000010E166E0BD0938481B403D0020E166EDD
:1022E00005D0938681B602D0030E166E1650030DEC
:1022F000F350186A176E036A07501724016E1850BE
:102300000322015081DE066E058005D0072A0750A2
:10231000020801E2076A046A15C001F00DEF12F02D
:102320000900F6CF17F0F7CF18F0F5CF19F046DF18
:1023300017C0F6FF18C0F7FF162EF2D725EF12F0E0
:102340001950016A185C03E218C000F00CD0006A52
:10235000080E1A6E183600361950005CD8B0006EA0
:1023600001361A2EF7D71200015016C018F0640E6D
:10237000196EE6DF00C016F00150300E07E117A21B
:102380000CD017B60AD017B8200E03D0179617989E
:102390001780012601C019F011DF16C018F00A0ECF
:1023A000196ECEDF00C016F00150300E06E117B6F0
:1023B00008D017A006D017B8200E012601C019F0CA
:1023C000FDDE300E162616C019F0F8DE2AEF12F0E8
:1023D000F86AD09E200ED36ED26A9B6A0F6A0E6A8C
:1023E0000F015B6B5C6B5D6B5E6B5F6B9A6A996AEE
:1023F000986A0590046A0590066A076A086A096A7D
:1024000000018BD6C6D6116A240EF66E200EF76E2A
:10241000FEDE1150020822E326D701C010F0105250
:102420001CE0036A1150120FE96E000E0320EA6EE1
:1024300010C0EFFF112A010E1124156E360EF66E34
:10244000200EF76E0E0E166E6BD715C016F01B0E13
:10245000176E8AD70A0E196EB1DEDBD71250370815
:1024600017E11350320814E11450330811E1480EFB
:10247000F66E200EF76ECBDE92908980020E156EFE
:10248000FA0E1A6EF1DD152EFBD79290899005D0C9
:10249000580EF66E200EF76EBADE040E156EFA0EAA
:0C24A0001A6EE2DD152EFBD7AED703004C
:020000040030CA
:0E00000021C85E3C00D3A1000FC00FE00F40EE
:00000001FF
;PIC18F45K50
;CRC=24F5  CREATED="28-oct.-20 18:40"
