:04200000CEEF11F01E
:08200800F76A180FF66E200EB6
:10201000F7220900F55012003132333435363738A3
:10202000392A30230C4C6973746F2E2E202E200A0F
:1020300000002A000C000C204361723D2563000063
:102040000C204361723D257500000C204E756D3DDE
:10205000257500000C4C6973746F2E202E202E20E5
:102060000A00EA6A110EE96EEF500EE00F0E016EE3
:10207000006A002EFED7012EFBD78F0E006E002EB9
:10208000FED70000EF2EF2D712001738F00B006ECB
:102090000F0E8C1400108C6E00008C80070E006EEA
:1020A000002EFED700D08C9012008350006E0038B6
:1020B0000F0B016E12000F0E9514F009956E8C84B3
:1020C00000008C800000F1DF01C017F08C90000050
:1020D0008C80030E006E002EFED700D0E6DF01C01C
:1020E00016F08C900F0E9514956E1738006EF00E4A
:1020F000001600501610016E83EF10F09590959227
:1021000095948C92D8D701C016F001BEFBD78C9263
:1021100014B08C8200008C9400008C901538166EE0
:102120000F0E161616C017F0B0DF15500F0B166EF7
:10213000176EABDF1200280E0D6E0C0E0E6E010E28
:102140000F6E060E106E8C908C928C940F0E951460
:10215000956E9590959295940F0E116E82DF010EFB
:102160000C6E0C50030808E3030E176E8EDF050E8D
:10217000116E77DF0C2AF5D7020E176E86DF050E7B
:10218000116E6FDF0C6A0C5003080DE3036A0C50EC
:102190000D0FE96E000E0320EA6EEFCF15F0146A02
:1021A000ADDF0C2AF0D7E6EF11F0E7EF11F0112CBC
:1021B00001D003D0400E126E01D0126A010E105CE5
:1021C000122612508009136E146A156E97DF1200E2
:1021D0000F50070A07E00B0A0AE0060A10E0020A9D
:1021E00014E018D0010E106E116EE1DF18D0146AE1
:1021F000010E156E83DF020E116E33DF10D0010E5B
:10220000106E020E116ED3DF0AD0146A100E156E16
:1022100075DF05D0010E146E0FC015F06FDF1200D0
:102220000900F5520CE0F6CF0CF0F7CF0DF0F5CF2A
:102230000FF0CEDF0CC0F6FF0DC0F7FFF1D7120094
:102240000C6A042A045021084DE2075005E0010AF7
:1022500007E0030A09E00BD0DE0E956E836E07D00F
:10226000BE0E956E836E03D07E0E956E836E05A0B6
:1022700009D083501E0B1E0804E1059006C00CF027
:10228000066A2FD083501E0B1E0826E08350020BD7
:1022900002E10D6A11D08350040B03E1010E0D6EB3
:1022A0000BD08350080B03E1020E0D6E05D0835056
:1022B000100B02E1030E0D6E0D50030DF3500F6A6B
:1022C0000E6E036A07500E24016E0F500322015058
:1022D0009BDE066E058005D0072A0750030801E142
:1022E000076A046AFE0E956E0CC001F0F0EF11F063
:1022F0000900F6CF0DF0F7CF0EF0F5CF0FF068DF45
:102300000DC0F6FF0EC0F7FF0C2EF2D712000F50D3
:10231000016A0E5C03E20EC000F00CD0006A080EE9
:10232000106E0E3600360F50005CD8B0006E0136CD
:10233000102EF7D7120001500CC00EF0640E0F6E75
:10234000E6DF00C00CF00150300E07E10DA20CD00A
:102350000DB60AD00DB8200E03D00D960D980D8045
:10236000012601C00FF034DF0CC00EF00A0E0F6E14
:10237000CEDF00C00CF00150300E06E10DB608D0E3
:102380000DA006D00DB8200E012601C00FF020DFF1
:10239000300E0C260CC00FF01BDF1200F86AD09E26
:1023A000700ED36ED26A9B6A096A086A0F015B6B72
:1023B0005C6B5D6B5E6B5F6B9A6A996A986A05905D
:1023C000046A0590066A076A0001B5D6EED6010ECA
:1023D000856EF19E240EF66E200EF76E21DF30D74B
:1023E00001C00AF0300E0A5C0B6E0A5253E0200E58
:1023F000036E320E0A5C08E1035206E1340EF66EFB
:10240000200EF76E0DDF03D00AC00FF0E1DE020EE2
:102410000C6EFA0E116E25DE0C2EFBD7360EF66E04
:10242000200EF76E060E0C6E63DF0AC00FF0D0DED2
:10243000020E0C6EFA0E116E14DE0C2EFBD7400E3F
:10244000F66E200EF76E060E0C6E52DF0AC00CF010
:102450001B0E0D6E70DF020E0C6EFA0E116E01DE99
:102460000C2EFBD74A0EF66E200EF76E060E0C6E83
:102470003FDF0BC00CF01B0E0D6E5DDF020E0C6E0D
:10248000FA0E116EEEDD0C2EFBD7540EF66E200EFA
:08249000F76EC6DEA4D70300BD
:020000040030CA
:0E00000023C85E3C00D3A1000FC00FE00F40EC
:00000001FF
;PIC18F45K50
;CRC=AC1E  CREATED="27-oct.-20 01:05"
