:0420000063EF10F08A
:08200800046ED8CF05F0E0CF13
:1020100006F00001E9CF0CF0EACF07F0E1CF08F0BD
:10202000E2CF09F0D9CF0AF0DACF0BF0F3CF12F0FC
:10203000F4CF13F0FACF14F0F5CF15F0F6CF16F079
:10204000F7CF17F000C00EF001C00FF002C010F083
:1020500003C011F09DA030EF10F09EB057EF10F0CC
:102060000EC000F00FC001F010C002F011C003F06C
:102070000CC0E9FF07C0EAFF078E08C0E1FF09C0F6
:10208000E2FF0AC0D9FF0BC0DAFF12C0F3FF13C092
:10209000F4FF14C0FAFF15C0F5FF16C0F6FF17C015
:1020A000F7FF045006C0E0FF05C0D8FF100019A0DC
:1020B00002D093928A720B0ECF6EDC0ECE6E197028
:1020C0009E9030EF10F0F86AD09E078E700ED36E9F
:1020D000D26A9B6A19900F015B6B5C6B5D6B5E6BE8
:1020E0005F6B9A6A996A986A370ECD6ECC6A0B0E4E
:1020F000CF6EDC0ECE6E9D80C00EF212FFD70300B5
:020000040030CA
:0E00000023C85E3C00D3A1000FC00FE00F40EC
:00000001FF
;PIC18F45K50
;CRC=0135  CREATED="06-nov.-20 00:33"
